:100000000810002013A3000011A30000B7A40000F3
:1000100011A3000011A3000011A3000011A3000010
:1000200011A3000011A30000E8BD000011A300000F
:1000300011A3000030BE000011A3000011A30000B6
:1000400011A3000011A3000011A3000011A30000E0
:1000500011A3000011A3000011A3000011A30000D0
:1000600011A3000011A3000011A3000011A30000C0
:1000700011A3000011A3000011A3000011A30000B0
:1000800011A3000011A3000011A3000011A30000A0
:1000900011A3000011A3000011A3000011A3000090
:1000A00011A3000011A3000011A3000011A3000080
:1000B00011A30000798C000011A300005D960000E0
:1000C000EDBC0000E9BC0000618E0000F9BC00003E
:1000D000F1BC000035960000F5BC00009D960000C4
:1000E000C1780000117900000997000011A30000F9
:1000F00011A3000011A3000011A3000011A3000030
:1001000011A3000011A3000011A3000011A300001F
:1001100011A3000011A3000011A3000011A300000F
:1001200011A3000011A3000011A3000011A30000FF
:1001300011A3000011A3000011A3000011A30000EF
:1001400070B506468AB032480BF0B0FA3148324BEF
:1001500000210360314B324C436004F003FA2AA3C0
:10016000D3E90023CDE900234FF0FF334FF0FF32F6
:1001700020600BF002FB02224FF0FF3120680BF0F1
:10018000FEFA00239422CDE9073309933C23CDE9FD
:1001900003320593962303A92068069304F0B4FA6A
:1001A00002F05CF92546014620680BF0FFFA206852
:1001B0000BF06BFBB6F9001055F8080B0BF00BFBBE
:1001C0007668D6B928460AF0F5FFA37B66F30003EC
:1001D000A373202310222384124B83F8212383F856
:1001E000222383F8262383F8252383F8232383F807
:1001F000202383F824230AB070BD3068A060B28841
:10020000B379AA80AB71E4E7085500510000000003
:10021000690345ECAC1A0020B93A0000A01A00208E
:100220007C1A002000E100E010B5054C237833B9BA
:10023000044B13B1044800E000BF0123237010BD3C
:1002400078120020000000004C0A010008B5034BA2
:100250001BB10349034800E000BF08BD00000000D7
:100260007C1200204C0A010010B5234C01F076FCF2
:1002700001F082FD236F23F0070343F0030323679C
:100280000AF06CFB1D4B00209B6A9B075EBF01229E
:100290001B4B9A62D4F8203123F0030343F002038E
:1002A000C4F82031D4F8243123F0070343F00203CB
:1002B000C4F82431D4F8403123F0030343F002039F
:1002C000C4F84031D4F8603123F0030343F0020353
:1002D000C4F86031D4F8403223F0030343F0020342
:1002E000C4F84032D4F8003223F0070343F002038D
:1002F000C4F8003210BD00BF0080005000C00050A4
:1003000000E00050064B0748DA1C121AC11E22F00A
:100310000302994288BF002203490BF013BD00BFBE
:100320006810002008100020600A0100064B0748F2
:10033000DA1C121AC11E22F00302994288BF002261
:1003400000210BF026BD00BF9C2300206810002078
:100350004FF400414FF0FF30124B134A10B59A6032
:10036000D3F8882042F47002C3F888200F4A9166BF
:1003700001F1884101F5005210664FF6DF705066BA
:100380000220C3F8D000BFF34F8FBFF36F8F082454
:100390004FF440330648C0F88041D36004600B61DD
:1003A00010BD00BF00ED00E0000000000090005014
:1003B00000E100E0014B1868704700BF0C100020FE
:1003C000084B1B6F03F00703022B04D0032B05D04F
:1003D000012B05D0FEE7044B18687047034BFBE781
:1003E00003487047008000500C10002010100020BF
:1003F000002D310108B5FFF7E3FF054B1B6FC3F379
:1004000003330133B0FBF3F0024B186008BD00BFAB
:1004100000800050081000200048704700B4C40459
:10042000014B1868704700BF10100020054B186082
:10043000054B1B6F03F00703032B01D1FFF7DABF56
:10044000704700BF10100020008000500048704727
:10045000002D3101014B1868704700BF14100020B7
:1004600010B5154BADF5087D03AC0FCB84E80F003C
:100470002C22002107A80BF08CFCFF234FF4947270
:1004800000213EA88DF81D300BF083FC482200218E
:100490000DEB02000BF07DFC6822002124A80BF07C
:1004A00078FC009424AB12AA3EA907A800F0E2F859
:1004B0000DF5087D10BD00BFBCBD00000122044B3E
:1004C0001A700023034A1370034A1370704700BF69
:1004D00069230020682300206A230020002238B509
:1004E000134B144C1A700122134B1A7023689A781C
:1004F000EAB1DA78DAB11A78510707D5986A09F0C3
:10050000B8FF18B14FF4C03000F0BEF923681A7874
:1005100092070CD55D6809F094FF854207D92368DE
:100520004FF4C030596ABDE8384000F085B938BD95
:10053000692300209C1200206823002007B5024692
:1005400001200B46064908700649074809680091D2
:1005500006490068096800F0D3FB03B05DF804FBAE
:100560006A230020A0120020A41200209C12002068
:10057000044A05490548202312680968006800F00C
:1005800085BB00BF9412002098120020A412002006
:10059000094B1A68D37892782AB1002B41F20C00EB
:1005A00018BF0020704741F20C0240F20570002B8A
:1005B00008BF1046704700BF9C12002008B5FFF727
:1005C00053FE02F049FA02F037FA01F03BFFBDE8B2
:1005D000084001480AF05BBDA812002010B5234B6B
:1005E000234C18681B7992B08DF80C302388029048
:1005F000ADF80D30A37868468DF80F300AF055FD40
:1006000041F60833ADF810309DF80630BDF80420EF
:10061000C3F300038DF8183040F60223ADF82830FC
:1006200000230098ADF816208DF82A30CDF812007E
:1006300002F052FA02F056FA2046032102F058FA6C
:1006400002F05EFA02F042FA112102A80AF041FD1E
:1006500003210AA80AF044FD01200AF048FD002801
:1006600040F2017008BF002012B010BDCCBD0000E8
:10067000D2BD000070B5134C134E20601348144DCA
:10068000016014490A60144A1360049A134B1A60FB
:1006900033780BB10AF007FD2B78002BF8D0104B04
:1006A0001B784BB123689A784AB1DB7840F2057029
:1006B000002B18BF002070BD40F20370FBE740F232
:1006C0000570F8E79C12002069230020A412002086
:1006D000682300209812002094120020A01200200D
:1006E0006A230020F0B5421ED11C034685B019D8FC
:1006F0006E460D4C04F110073546206861680834D9
:1007000003C5BC422E46F7D10DF10F010F3311F88E
:10071000010912F8014F844204D19A42F7D1012015
:1007200005B0F0BD0020FBE7D6BD00002DE9F0418B
:100730000368044603F16043B3F5004F4FF0000037
:10074000A0B029D8826A636816699E4224D8B3F59E
:10075000002F21D8656B06F14003AB4268D8B5F590
:10076000002F65D82846FFF7BDFF002860D0284637
:1007700009F04BFE80B16B6973B1022B0FD1AB69ED
:10078000C4F1040119444FF0FF32204600F0EEFDA1
:10079000284BC31A5842584120B0BDE8F08140F2BE
:1007A000046328460493FFF79DFF08B90020F3E790
:1007B000284609F02AFE0028F8D00027D7F8348010
:1007C0004046FFF78FFF0028F0D0503EB045EDD8EF
:1007D000284605A909F020FE0028E7D0BA6A059B43
:1007E00012699A42E2D89C42E0D8B3F5002FDDD8D6
:1007F00006A800F077FE059A2146121B06A809F00C
:1008000078FF06A809F077FF059C00F07FFE0390B3
:1008100000F080FE21460090039B04F1200206A810
:1008200000F0E6FD04900498B0FA80F04009B3E7C8
:100830000120B1E7E320BBDE30B54FF0FF3289B0D5
:1008400005460C4600F092FD0D4B984215D140F242
:10085000022000F00BF91C22002101A80BF099FAEC
:10086000084B2946684600930AF09EF86846211F07
:100870000AF09AF8684601F055FC002009B030BD36
:10088000E320BBDE0100064310B5044688B040F209
:10089000022000F0EBF81C22002101A80BF079FAED
:1008A000054B2146684600930AF07EF8684601F041
:1008B00039FC002008B010BD0000034310B501F062
:1008C00037FD01280DD1204B04205A6E4FF48023B0
:1008D0001E494B6601F51041086250035CBF1C4A7B
:1008E00053661C4BD3F88420110606D44FF40062E3
:1008F0001A67D3F88420D206FBD409F0CDFD00F0AE
:100900009FF809F019FD09F019FD18B14FF40170B5
:1009100000F0B8F8FFF7A4FD044609F011FD1CB182
:1009200040F203739C4203D140F2012000F0AAF888
:10093000A4F20574012C94BF40F203204FF401701F
:1009400000F0A0F8002010BD008000500090005082
:1009500000A000500040005037B50124334B8DF803
:1009600006408DF80740D3F894305B0610D500F0B0
:100970009DF8A0F2022080B2072809D804FA00F0FE
:1009800010F0C90F1EBF00238DF806308DF8073018
:100990004FF490335B68013308D14FF4027000F0DC
:1009A00065F800238DF806308DF807309DF8073084
:1009B00063B14FF49030FFF7B9FE8DF806009DF853
:1009C00006301BB94FF4027000F050F89DF8063065
:1009D00053B34FF400424FF0FF31154B9A6603F1C9
:1009E000744319664FF6FF7159660021114BC3F825
:1009F000D010BFF34F8FBFF36F8F08250E4CC4F894
:100A00008050BFF34F8FBFF36F8F4FF440300B49CF
:100A10000861C4F88051C8604FF4903001F1406122
:100A20008A66986009F03CFD03B030BD004000507C
:100A30000090005000ED00E000E100E000A0004464
:100A40004CF23C32014B5A80704700BF000000203E
:100A50004AF6C030044B5B8823F00F039BB21B1A8D
:100A600058425841704700BF00000020044A08B5B2
:100A70001080FFF7EDFF10B94FF20F03538008BD50
:100A80000000002008B5FFF7F1FFBFF34F8F0549C5
:100A9000054BCA6802F4E0621343CB60BFF34F8F8B
:100AA00000BFFDE700ED00E00400FA054FF20F0182
:100AB000084B5A888A4201D1188870473AB91B8876
:100AC00040F20220012B18BF4FF4007070474FF422
:100AD00000707047000000204FF4003208B5044B4E
:100AE0009A6601F087FAB0FA80F0400908BD00BFAD
:100AF00000900050072BF8B506460F4614461D46D9
:100B000001D90020F8BD0121202000F04BFF012178
:100B1000212000F047FF8CB144EA06039B07F0D187
:100B20004FF40032064B31469A66284623463A4631
:100B300001F08AFAB0FA80F04009E3E70120E1E72A
:100B40000090005030B500220C24064B04FB02F14B
:100B5000CD58854201D1581830BD01320C2AF5D14B
:100B60000020F9E780BE00007FB50023CDE9003307
:100B7000082315460DEB0302044609F034FD41F24B
:100B800003039842064626D194F8433063B1082205
:100B9000E06C0DEB020109F0ACFD08230DEB030244
:100BA0001146A06C09F094FD039A029B6A6094F8C8
:100BB00043202B605AB9094A934208D0084A93420D
:100BC00005D00822E06C0DEB020109F092FD6B6884
:100BD000236500236365304604B070BDF70A0AF749
:100BE000FC0404FC2DE9F743044658680E461746FA
:100BF0009846002840D011F0030340D19B6A206E34
:100C00001B6902EB000C1D1D65451CD81C33984266
:100C100019D28542294638BF01469C4594BFC1EB95
:100C20000C02C1EB0302081AC5F1680506EB0009C6
:100C300068182044494601920BF084F8FF21484689
:100C4000019A0BF0A6F8226E0E4B9A420AD80E4972
:100C5000B818884206D99B1AF258C4F880204FF081
:100C6000FF32F2503A46D8E90035206E3146A847A7
:100C70000020226E3A44226603B0BDE8F08341F2C0
:100C80000200F9E704800100078001002DE9F0412E
:100C900000254FF0FF3704468846164603F0200330
:100CA00080F842301822FF21C0E91855A0F84050C2
:100CB00080F84350A0F8445080F84650C0F888703F
:100CC00068300BF066F888222946C4E91286C4F819
:100CD0008070C4F8847004F190000BF05AF8074B50
:100CE000C4F82071C4E9463584F8245116B1304661
:100CF00000F0F8FB0020BDE8F08100BF0001010119
:100D00002DE9F04FA5B09846CDE911230023044604
:100D10000E462E9D1393139A424501D30020C5E041
:100D200094F84630132BF7D8DFE813F05C00A800E6
:100D3000A20046002D001001C3012D00BB012D00B3
:100D400076012D00BB01AA0219031400060151020D
:100D5000510217034FF00009636D0F2B00F28C80D6
:100D60000127102314AA2046CDF80490009711A95A
:100D700009F039FC41F203030890089A9A4200F006
:100D8000CD80089B3AE04FF00109D4E91417B9422D
:100D900072D9C91BDDE91272BF1A94F840200329E9
:100DA000174440F28F81032F00F28F81204611A952
:100DB00009F0F8FB002321E00127636D072B00F207
:100DC000D180082314AA2046CDE9007711A909F0A3
:100DD0000AFC41F203030B900B9A9A4200F0308117
:100DE0000B9B0BE014AA204611A9FFF7BDFE41F2B0
:100DF00003020590059B934207D0059B049341F2A3
:100E00000303049A9A4286D04FE0159A14992265FA
:100E100000226265A94A914240F01D81022284F8B5
:100E20004620EBE7012314AA0093204608230197EC
:100E300011A909F0D8FB41F203030690069A9A42E1
:100E400001D0069BDAE7149B03F07F43B3F1407FA8
:100E500005D0132384F8463041F20903CEE7159BF1
:100E6000D90706D594F8423043F0010384F84230A4
:100E70000027636D072BD5D9012317E1204614AA5B
:100E800011A9FFF771FE41F203030790079F9F42EC
:100E90000FD0079F41F203030497049A9A423FF44C
:100EA0003AAF049B0BB10023F370049825B0BDE862
:100EB000F08F1498FFF746FE28B9132341F2080774
:100EC00084F84630E6E7437994F824219A4205D91C
:100ED000132341F20E0784F84630DBE702687849B5
:100EE0008A4205D00289D20748BF013384F82431F1
:100EF00094F84230D9070DD5028994F8433092070F
:100F000006D53BB1132341F2010784F84630C1E70F
:100F1000002BF7D0037984F84630BBE7D4F848A01B
:100F200000F0FCFA80230221CDE9000315AA3B461C
:100F3000504600F033FA0FE7226D0123A26500222C
:100F400084F84330E26584F84630E4E6236D1C2BD8
:100F500040F084804FF00109D4E91432934204D860
:100F600084F8469041F2030348E714AA2046CDE9ED
:100F7000009911A909F037FB41F203030990099A7E
:100F80009A4201D0099B39E714AF06F108030DF12D
:100F9000680C3A4603CA624518605960174603F167
:100FA0000803F6D110681860337843F001033370FA
:100FB000D2E7337843F004033370179BB36273783E
:100FC0005F0726D5EB238DF8503017238DF851306D
:100FD000A6238DF852305E2300208DF85330236D08
:100FE0006066C4F8843094F8453043F0020384F816
:100FF0004530EF686FB104222B6814A9B847082266
:10100000606E2B68EF6816A91044B847636E103302
:1010100063660B2384F84630636D072BA2D8012347
:1010200016AACDE900332046082311A909F0DBFAFE
:1010300041F203030A900A9A9A42BAD00A9BDDE66B
:101040003378159A43F002033370149B7360236D59
:10105000083B73622AB1132384F8463041F201033E
:10106000CCE6042384F8463094F84530626643F0B9
:10107000010384F84530A0E6042314AA2046CDE9F4
:10108000007711A909F0AFFA41F203030C900C9A12
:101090009A4201D00C9BB1E6236D042B02D9149B1C
:1010A00023660127636D032BE6D9092384F84630B4
:1010B00058E700236366072345E700BFEB17A60345
:1010C000F90707F98F42FFF471AE402928BF40218C
:1010D0008F4228BF0F46032F88BF27F003073B46E8
:1010E00014AA2046CDE9009911A909F07CFA41F231
:1010F00003030D900D9A9A4201D00D9B7EE694F861
:1011000046A0BAF1070F04D1D5F808B0BBF1000F23
:101110001BD1042FC7F1040B88BF4FF0000B14AB99
:101120005A46FF21D8190AF034FEBAF1090FBB4420
:1011300014D12B465A46204614A9FFF753FD0D90B3
:101140000D9B002B3FF421AED7E73A462B68606E2B
:1011500014A9D847626E3A44626616E6BAF1040FE3
:1011600021D1737898077FF510AEEB68002B3FF420
:101170000CAE626E042A0BD80BEB0203062B07D9C8
:1011800015AB9B1A1A68C4F884204FF0FF321A601E
:101190005A462B68606EEF6814A9B847626E0BEB75
:1011A00002076766F1E5BAF10B0F7FF4EEAD7378D5
:1011B00059077FF5EAADD5F80CA0BAF1000F3FF45E
:1011C000E4AD5A462B68606E14A9D047E6E70021CB
:1011D0008A6A496B1269503A91423FF63FAF112B30
:1011E0000FD194F81831002B7FF446AE41F206037C
:1011F0000E930E9A9A4202D1132384F846300E9B26
:10120000FCE594F84430002B7FF436AECDE9003392
:1012100014AA4023204611A909F0E5F941F203037D
:101220000E900E9A9A42EAD1E06C09F064FA94F8B2
:101230001831A3B104F1B403E06C00931CAA04F1CB
:10124000940314A900F0D4F80E900E9B9BB10023D8
:10125000F370132384F8463041F20603CEE5E76CC1
:1012600000F054F9039000F055F9039B00901CAA7C
:10127000384614A9E6E70123F37084F84430FBE50F
:10128000002314AACDE900332046042311A909F054
:10129000AAF941F203030F900F9A9A4202D00F9BD2
:1012A000049302E6D4F888202E4B9A4205D01323EB
:1012B00084F8463041F20503F2E70123F37094F815
:1012C0004530DA0707D5EF682FB104222B681046A6
:1012D00004F18401B84794F845309B0707D5EF68BF
:1012E0002FB104222B68104604F18401B847236E05
:1012F00063B36F6857B34FF0FF3304F180010422EA
:1013000010A8109303910AF00DFD20B104222B6860
:1013100003991548B84704F168090422494610A802
:101320000AF000FD90B100239B6A1422D3F81080CC
:1013300004F16C0108F10800D5E90037B847D5E998
:1013400000370422494608EB0200B8470123B37076
:101350000E2384F846300023A2E70023F37041F205
:101360000700A3E5E320BBDE0480010030B50824BC
:10137000094B00255C66012403F5FE235C600144F3
:101380009D601A61DC60884201D1586A30BD10F856
:10139000012B1A62F7E700BF00900050F8B516461F
:1013A0004FF400521D46114B04469A660222C3F8C0
:1013B00060220F4609F08DFDDDE90612204609F096
:1013C0008CFD002384F8387063623368C4F83930C8
:1013D0007368C4F83D30B368C4F841302B0C6DBA63
:1013E00084F84530A4F84650F8BD00BF0090005086
:1013F0002DE9F041B0B014460646369D00286AD06B
:10140000002968D0002A66D0002B64D0002D62D05D
:1014100006224FF400500692304A20AF9066032017
:10142000C2F860020022BE4609920C920F920A4650
:1014300001F12008F446106851680832ACE8030056
:101440004245E646F6D122460DF1A00C04F1200EED
:10145000644610685168083203C47245A446F7D147
:101460000DF1400C1A46644603F1200E2346106825
:101470005168083203C372451C46F7D12B4618AC9D
:101480002035224618685968083303C2AB42144617
:10149000F7D14023CDE90A73089320230AAA0E93BB
:1014A00003AB07CACDF81CC00D9683E8070007AB55
:1014B00093E807008DE807000DAB0ECB084809F054
:1014C00056FC0690069B40F20460002B08BF0020EB
:1014D00030B0BDE8F08140F20160F9E700900050C3
:1014E000ECC000004FF40052074B10B59A66022280
:1014F0000446C3F8602209F001F92046BDE8104017
:10150000002109F0FFB800BF00900050004870476C
:101510004CE30700004870476CE307000048704741
:1015200086E207002DE9F34799460A9B0C461968A5
:1015300005463F29164642D85A68002A41D0224A19
:10154000002E14BFB046904601F03F07091928BF8E
:101550005A68196024BF01325A60AFB1C7F1400A1E
:10156000A24521D82946524609EB07000AF0EAFBBA
:101570000123414600934A463346002009F0DBF838
:10158000B046403C55443C443F2C0CD9A3092A4664
:10159000009341463346002009F0CDF824F03F0384
:1015A0001D4404F03F0400272CB12246294609EBD4
:1015B00007000AF0C7FB002002B0BDE8F0879046A4
:1015C000C2E7DFF80480BFE710BF000030B4054673
:1015D000084611461A46DDE9023425B931B10294B4
:1015E00030BCFFF79FBF024830BC70470846FBE79E
:1015F00080AFFFFF2DE9F0411746146886B01E4604
:10160000E3008DF80F30630952688DF80E30630BDC
:101610008DF80D30630D8DF80C30D30003EB54734F
:101620008DF80B3004F03F045309372C8DF80A3045
:101630004FEA52334FEA525205468DF80820884649
:1016400094BFC4F13802C4F17802CDE900178DF8D7
:1016500009300D4903460020FFF7B8FF0821434633
:101660002A4600970DEB0100FFF75CFF284605F1C5
:10167000200350F8042B984246F8042BF9D100209F
:1016800006B0BDE8F08100BF30BF0000044BD3F8C6
:101690008420D206FBD4D3F88400C0F381107047B5
:1016A0000040005038B5104B0546D3F820310C46A9
:1016B00003F00303022B0BD0032B0DD0012B0FD112
:1016C000FEF778FE052305B1286004B1236038BD1C
:1016D000FEF7A6FE0323F6E7FEF7B8FE0223F2E7C5
:1016E00001230020EFE700BF0080005073B50D46D6
:1016F00000210E4B0191D3F88041064604F003040B
:10170000012C09D0022C0CD00C460EB1019B336089
:1017100005B12C6002B070BD01A8FFF7C3FF0F2414
:10172000F3E7FEF793FE0190EFE700BF0080005063
:1017300038B5184B0546D3F824010C4600F00700D5
:10174000062805D8DFE800F0230B131B1F0F170036
:101750000023184605B1286004B1236038BDFEF7A8
:1017600029FE0523F6E7FEF725FE0623F2E7FEF73E
:1017700057FE0323EEE7FEF753FE0423EAE7FEF7E6
:1017800065FE0223E6E708F0CFFD0723E2E7012329
:10179000E0E700BF0080005038B5104B0546D3F895
:1017A00040310C4603F00303022B0BD0032B0DD06A
:1017B000012B0FD108F0BAFD092305B1286004B14F
:1017C000236038BDFEF746FE0823F6E708F0B1FDBA
:1017D0000B23F2E701230020EFE700BF0080005059
:1017E00038B5144B0546D3F800020C4600F007004C
:1017F000042804D8DFE800F01B0A0E1216000023AC
:10180000184605B1286004B1236038BD08F08EFD8C
:101810000923F6E7FEF71EFE0823F2E708F089FD2C
:101820000B23EEE7FEF7E6FD0E23800AE9E701232E
:10183000E7E700BF0080005038B5104B0546D3F8ED
:1018400040320C4603F00303022B0BD0032B0DD0C8
:10185000012B0FD108F06AFD092305B1286004B1FE
:10186000236038BDFEF7F6FD0823F6E708F061FDBA
:101870000B23F2E700231846EFE700BF008000507B
:1018800038B5104B0546D3F860310C4603F003031E
:10189000022B0BD0032B0DD0012B0FD108F046FDEE
:1018A000092305B1286004B1236038BDFEF7D2FDDD
:1018B0000823F6E708F03DFD0B23F2E701230020A3
:1018C000EFE700BF0080005010B40D4C0B46D4F879
:1018D000204204F00304012C0AD0022C0CD008B1E1
:1018E000002101600BB100221A605DF8044B7047C3
:1018F0005DF8044BFFF7D6BE5DF8044BFFF74CBF15
:1019000000800050B0F5207F1FD009D8B0F5007FCF
:1019100015D003D868B1B0F5C07F0AD000200CE024
:10192000B0F5607FFAD10B4BD3F88000C0F3011003
:1019300003E0084B186FC0F3033001307047054BCC
:10194000D3F89000C0F30460F7E7024B186FC0F3C0
:101950008020F2E7008000504FF400320E4B014629
:1019600010B500209A66FFF7CDFF41F6713248436B
:101970000A490B4B88428CBF4FF480100020DC6971
:10198000DA639A6822F4401202439A60E20344BF89
:101990000022DA6310BD00BF00900050005A6202BE
:1019A00000000350420910B510D0012A10D00B4B93
:1019B0000B4C022A18BF234600F01F0051B103F55B
:1019C0008053012202FA00F0186010BD1346F3E7BD
:1019D000044BF1E703F50053F3E700BF68800050C4
:1019E000608200506480005008B5802008F0EEFE50
:1019F000034B98429EBF4FF48032024B1A6708BDDA
:101A0000005A620200A000501FB50023B0F5807F8D
:101A1000019377D028D8382800F094800BD8243848
:101A2000092810D809280ED8DFE800F06767676733
:101A30000D0D620D377D52285FD008D83D283BD070
:101A40003E2800F08480019805B05DF804FB8028F2
:101A5000F9D1414B1B6F03F00703013B032BF2D875
:101A6000DFE803F044413F6CB0F5D06F5BD019D88C
:101A7000B0F5A06F66D00AD8B0F5806F3DD0B0F554
:101A8000906FE0D1002001A9FFF752FEDBE7B0F52F
:101A9000B06F2DD0B0F5C06FD5D1002001A9FFF7F0
:101AA0007BFED0E7B0F5006FECD00AD8B0F5E06F60
:101AB0004DD0B0F5F06FC6D1002001A9FFF7E0FED0
:101AC000C1E7B0F5086FBED1234BD3F8003103F066
:101AD0000303022B2CD0032B2ED0012B30D1FEF789
:101AE0009FFC032300E005230193ACE70223FBE7FF
:101AF000002001A9FFF7FAFDA5E7002001A9FFF7E3
:101B0000D1FDA0E702934FF0E0231B695B0705D5E9
:101B1000FEF770FC0C230393039BE5E703A902A8DF
:101B2000FFF73AFEF8E7002001A9FFF759FE8AE720
:101B3000FEF790FC0823D7E708F0F6FB0723D3E76E
:101B40000123D1E7002001A9FFF7BEFE7BE70020BB
:101B500001A9FFF771FE76E7008000504FF40022E4
:101B6000034B5A66012203F580439A62704700BF17
:101B70000090005070B504468020FFF745FF032811
:101B800000F082804FF40022444B02215A6645F651
:101B90000E03434AC2F88030424B9962012103F59B
:101BA00080539962936DD903FCD4D4E900131B05CB
:101BB00043EA0163E17B94F822500B43217B94F8C4
:101BC000236043EA0143617B43EA0133A17B43EA9B
:101BD000811313619169D4E904031B0643EA80630E
:101BE00001F000410B43A17EE07E0B43217E43EADE
:101BF0000143617E43EA01239361E369126A002B8A
:101C00000CBF0021082122F00D0242EA030242EA41
:101C10008002234B42EA01021A6294F820204FEA24
:101C2000421232D1986A94F8211020F0330042EA2F
:101C30000112024342F001029A621B4A996D32EA94
:101C40000101FBD1022217498A621A659A6D52007E
:101C5000FCD41869A26820F4700040EA02504FF0EA
:101C6000004218610F4B9A611DB9022203F580539F
:101C70009A6216B901220D4B9A6294F824301BB176
:101C8000074B0B4AC3F8802070BD996A21F03301DD
:101C900031430A4342EA4502EEE700BF009000509C
:101CA00000C0005000D000500300014000E0005090
:101CB000F1A7FFFF014B93F9000070476B23002051
:101CC000014B1880704700BF48100020B0F5207FFE
:101CD00010B50C4642D008D8B0F5007F33D003D8F9
:101CE00088B1B0F5C07F0ED010BDB0F5607FFBD1DC
:101CF0001F4B013CD3F8801021F0300141EA04145D
:101D0000C3F88040F0E708F059FD08F022FE4FF4D8
:101D10008031184A164B1167196F013C21F470414C
:101D200041EA04341C67FEF765FB0446FFF7AEFC8E
:101D3000C0F10201204608F006FE00F02DF8BDE8D3
:101D40001040FFF751BE0A4B013CD3F8901021F030
:101D5000F85141EA0464C3F89040C5E7044B013CE4
:101D6000196F21F4806141EA84241C67BCE700BF3D
:101D7000008000500090005008B50121022000F0C2
:101D80001DF808F01BFD08F0E4FD4FF48032014B14
:101D90001A6708BD0090005008B54FF4C07008F0F5
:101DA00015FDBDE80840044988428CBF022101218D
:101DB0004FF42070FFF78ABF80F0FA02F8B50446AE
:101DC0001C4BD3F88420D106FBD4D3F88430C3F362
:101DD00081139C422CD0FEF7F3FA012C064602D167
:101DE000214608F0B0FD08F0CEFD4FF00072124B16
:101DF00007465A66204608F0D6FD4FF480630D4D25
:101E0000621E93402B676B6E9A0103D4D5F8843021
:101E10009B060AD5384608F0BAFD022C08D1304698
:101E2000BDE8F840002108F08EBDD5F88430EAE71F
:101E3000F8BD00BF004000500060005007B518B961
:101E40000191FEF7BDFA0199064B1B7843B1064B91
:101E5000984205D8012003B05DF804EBFFF7AEBF50
:101E60000220F8E76C230020005A62024FF0004283
:101E700038B5264B26495A6601224A604AF6CD31CA
:101E800003F50B235D6C1964154030BB9968C907D5
:101E90000BD4002401221F4B5A6015B11E4B1F4A60
:101EA0001A6409F081FC204638BD1A498A601C4A30
:101EB000D96ACC0705D4904201D10724EAE7013062
:101EC000F6E79042E5D1F8E70132DC6A14F0080445
:101ED00006D08A42F8D10724DFE700221049F4E750
:101EE0008A42F8D020220B4B0B495A620122A3F5FB
:101EF00080539A6023460A4A486A800603D4934274
:101F0000E9D00133F8E79342C7D1E4E700900050ED
:101F10000050095000600950004009503254FFFF42
:101F200040420F004FF0004238B5194B194C5A6629
:101F3000012203F50C235A604AF6CD33656C236405
:101F40004378154093401343134AD363A3688278C0
:101F500023F0740343EA0213C278002A14BF042258
:101F600000221343A3600279837943EA02232361A9
:101F70004279C37943EA022363610078FFF776FF71
:101F80000DB1064B236409F00FFC012038BD00BFE2
:101F90000090005000400950004000503254FFFFB4
:101FA000F0B5114A114C124E00F00105E3695F07CC
:101FB00013D40DB9334213D103EA00078F4207D17E
:101FC0000B4A1A40002A14BF6FF001000020F0BD38
:101FD000013AEBD16FF00200F9E74FF0FF30F6E77E
:101FE0006FF00100F3E700BF8096980000000350F7
:101FF000020001004FF4003238B50F4B0F4C9A66C7
:1020000041F671330122E569E3630D4B0021DA608B
:10201000022360612120236105F48035FFF7C0FFB2
:1020200010B92120FFF7BCFF0122064BDA600DB189
:102030000023E36338BD00BF009000500000035050
:1020400000100350002003502DE9F04F06464FF4D6
:10205000402501202C4CDFF8BCC04FF40037CCF8F1
:10206000040044F8265030250024DFF8ACE0DFF807
:10207000AC9005FB06E5EC652C662C67234CDFF87D
:10208000A0A0A76641F6713704F51C34D4F81C8073
:10209000E763E76800FA06F60743E7604BB9E268D2
:1020A00018F4803F22F00102E26000D0E36318469A
:1020B00028E001F5005000EA0900401A984228BFC4
:1020C00018466161D4F81CB087081BF0040F17D1C3
:1020D000013F3F0147F060576F66AA66C5F86CA0E4
:1020E000CCF82460DEF834703E42FBD0084F014447
:1020F0007E630427CCF82860024427611B1ACDE7D1
:102100004FF0FF30BDE8F08F0040045000900050C9
:1021100000200450001004500000045000E0FFFFB5
:10212000180003502DE9F843C3690446042B6ED808
:1021300008F029FC374B384A596E4FF48033374842
:10214000536602F5E622C2F80006C90300F50070E6
:10215000C2F804065CBFA2F5E4225366304A314B54
:10216000E669136023683048536004F10C0303EB05
:102170008601121B8B4202EB030520D16368002706
:10218000344603BB39462546254A41EA066191603B
:102190001368516892684B4053400022AA4231D1E3
:1021A00040F82230BFF34F8F2049214BCA6802F418
:1021B000E0621343CB60BFF34F8F00BFFDE753F8DE
:1021C000047B2F60D6E70022D3F8009000EB840E4A
:1021D000D3F808C0F046CCF3990C624502EB070136
:1021E00002EB04050EF1040E06D35A68012ACBD087
:1021F0000F462C465B68C4E759F822100132C8F834
:102200000010E5E750F8221001324B40C6E7BDE868
:10221000F88300BF0080005000900050004C00A0E8
:10222000004C00B0DEC0ECE50C4C00B000ED00E06E
:102230000400FA054FF480311A4B30B5586E03F59F
:102240008053596603F5E623D3F8043603F1C04200
:10225000A2F58042B2F5606F01D9002030BDC20303
:1022600058BF114A03F1805358BF516618680F4A8E
:1022700019469042F1D11A69501DB0F5007FECD299
:1022800003F11400940000EB82000022834205D188
:102290000B195869831A58425841DFE753F8045B19
:1022A0006A40F3E70080005000A00050DEC0ECE57B
:1022B00038B5104B10495A6E4FF48033D20358BFD3
:1022C0000E4A4B6601F5E621D1F80456044658BF84
:1022D000536640B1FFF7AEFF40B1002005F18055D5
:1022E0006B68236038BD4FF4E020FBE74FF47E00BD
:1022F000F8E700BF008000500090005000A00050A0
:102300004FF48032064B5A6603F5E6235B69C3F34C
:102310008512827003F03F021B0B427003707047FE
:1023200000900050014B986CD96C70470080E00F12
:10233000024B1868C0F30740704700BF0080E00FF1
:1023400038B50446054D09F042FA0FCC0FC594E8A4
:10235000030085E80300002038BD00BFB012002054
:1023600047F6FF739A42F0B566D0012966D8344D1E
:10237000CF0015F8313005EBC100012B847813D163
:102380000025C3781B1B9D4202D3E018C0B2F0BDEC
:10239000591B4668A3EB510136F911609642D4BF30
:1023A0000D4601F1FF33EEE740680028EFD0B0F9A9
:1023B0000030934204DBB0F902309342B8BF1346B9
:1023C00082883D44FF2A19BFC8214FF0280CB0F97C
:1023D0000610B0F908C0A1EB03020CBF01260026CD
:1023E00092FBFCF26D78324412B2954201DD002A74
:1023F00001DA6A1E12B24FF47A7700EBC206F18856
:10240000B668013213FB016112B221EAE1715C315D
:102410009542B1FBF7F104DD00EBC206B6888E42AF
:10242000EBD200EBC20232F8040C884228BF084607
:10243000A04238BF2046A9E7FF20A8E70020A6E772
:10244000B012002008B50448FFF77AFFBDE8084045
:10245000012009F0DFB900BF70BF000000487047DD
:102460004A10002060B5054619B10139B1F5806FF9
:1024700010D2094EF06810F48030FBD143EA0121FC
:10248000120741EA050302F08052134343F0004370
:10249000736060BD0120FCE70020025C0122054B57
:1024A0009A60DA68D203FCD4D86820F00F000004E8
:1024B000000C70470020025C014B1868704700BF99
:1024C0000010025C044B1A6842F480721A601A68A9
:1024D00022F480721A6070470010025C024B186B85
:1024E00000F00E00704700BF0010025C82B01FB504
:1024F00007930A9B04AC8B4228BF0B4604E90700F4
:102500001048D100079948BF03330160099948BFBB
:1025100023F0030323F0704301F0E041194341F03D
:1025200000518160002102F0E042019C134343F01E
:102530000053C16004618361416304B0BDE8104091
:1025400002B070470000025C3F22034B1A63102266
:10255000DA6103229A6370470000025C024AD36B7F
:102560009B07FCD4704700BF0000025C034B986AD5
:1025700010F0240018BF0420704700BF0000025C68
:1025800008B5FFF7F3FF064BDB6B23F47F4323F023
:10259000EF0303431EBF0122024BC3F8FC2F08BD0B
:1025A0000000025C00F0FF3F032208B5054B1860F5
:1025B00019615A63FFF7C8FFFFF7D0FFBDE8084075
:1025C000FFF7DEBF0000025C42680346182A10B520
:1025D0000AD0202A1DD0102A2BD1174AD2F8042461
:1025E000D4010AD4012013E0134AD2F80424900144
:1025F000F8D50A6842F008020A6010481A68824258
:102600004FF000000ED10A6842F040020A605860A4
:1026100010BD094AD2F804245201E3D50A6842F0F9
:102620000402E9E7064CA242F2D10A6842F08002B5
:10263000ECE70720ECE700BF0000025C6D23002000
:102640006E2300200B4607B50749D1F80414C907CB
:1026500008D5002100920246084600F033F803B086
:102660005DF804FB0120FAE70000025C0B4607B5A9
:102670000749D1F80414C90708D500920121024680
:10268000002000F01FF803B05DF804FB0120FAE71A
:102690000000025C1FB50A4CD4F8044464070CD552
:1026A000CDE900120021069C0222CDE90234034646
:1026B000084600F031F804B010BD0120FBE700BF70
:1026C0000000025CF0B51C465B6815468DB01A0729
:1026D000129E1AD1CBB17268934216D10C4B0D4A9F
:1026E00053F8217009AB07CA83E807001A46294648
:1026F000CDE90533CDE90333CDE90163009447F417
:10270000807008F056FA0DB0F0BD0720FBE700BF5F
:1027100024C00000F4BF00002DE9F0418CB0DDE9D9
:10272000127C7C681E46DDE9143E200728D13CB3AC
:10273000DCF80400844223D15868102820D1DEF848
:10274000040010281CD10F4809AC50F821500E4944
:1027500051F822800D4A07CA84E8070045EA0800BC
:1027600022463146CDE9054ECDE90344CDE901C409
:10277000009740F0300008F01CFA0CB0BDE8F08182
:102780000720FAE724C0000000C00000F4BF0000EA
:102790000138C0B206289ABF014B185C0020704770
:1027A00000C100000138C0B206289ABF014B185C76
:1027B0000020704707C100000138C0B206289ABF48
:1027C000014B185C002070470EC100002DE9F04F4E
:1027D000BBB0804603A880E80E007E4B9DF81091A8
:1027E000D3F80024D40603D401203BB0BDE8F08F19
:1027F00008F1FF32059EDDE903A7062A00F2E78013
:10280000DFE802F0041A20262C323800D3F80C340A
:10281000D807E9D5012307930023B9F1010FCDE9CA
:1028200008332DD0B9F1020F00F092804046FFF737
:10283000C3FF6324054631E0D3F80C349907D3D5A0
:102840000223E8E7D3F80C345A07CDD50423E2E796
:10285000D3F80C341B07C7D50823DCE7D3F80C34B6
:10286000DD06C1D51023D6E7D3F80C349C06BBD5C2
:102870002023D0E7D3F80C345806B5D54023CAE757
:10288000544BD3F80C34D903AED5079B404643F4E0
:10289000C0630793FFF77CFF03240546132304223C
:1028A000009307A94FF0005312A808F03FF95146D2
:1028B000009446F000533A4608F038F94FF0000B08
:1028C00004465E46DDF814A1469B9B4564D1B9F1F0
:1028D000030F0AD14046FFF76FFF874277D140468A
:1028E000FFF760FF0138304271D1002E67D103231A
:1028F00032462046009308A9334608F017F904260B
:102900000446A4F11000029008F026F9314602981E
:1029100008F02DF9489AAA4228BF2A461446002AF0
:1029200053D00023479900930AA8499B08F0FEF86A
:102930002A1B04D000231946009308F0F7F810383A
:1029400008F00AF912A80AA9FFF72EFE00204CE7AA
:10295000204BD3F80C24D2037FF546AFD3F80C34C8
:102960009B037FF541AF97B17C423946374604F06F
:102970000304079B404643F4E0630793FFF708FF17
:1029800024023E4605460F4644F0A30486E7042190
:102990000DF1200A0C46ECE7DAF8042016444AB19F
:1029A000032300932046DAF80830DAF8001008F024
:1029B000BDF804460BF1010B0AF10C0A84E716F08E
:1029C000030618BFC6F104069BE70AA8B0E7072074
:1029D0000BE700BF0000025C08B5FFF773FD0122A2
:1029E000014B1A7008BD00BF6F2300204FF4005246
:1029F000034B00209A660322C3F86022704700BF91
:102A00000090005008B5FFF757FDC30708D5FFF742
:102A100065FD062804D00A28F5D1FFF7DDFFF2E7AF
:102A20004FF40052034B00209A660322C3F8602241
:102A300008BD00BF00A0005007B56B46054A1068EE
:102A4000516803C36846FFF76DFA002003B05DF8D4
:102A500004FB00BF15C1000030B58BB06C46174DAC
:102A60000FCD0FC40FCD0FC495E8030084E8030019
:102A7000134BD3F84C21120318D4D3F85041E4B2CD
:102A80008DF81940FFF716F9204480F308008DF8FF
:102A900018000C48FDF7CAFC6846FFF76BF84FF4C6
:102AA000FA70FFF70DF900200BB030BD064B1C8803
:102AB0004FF6FF739C4208BF7824E1E720C1000075
:102AC0000080E00F00F049020001E00F014808F02B
:102AD00040BB00BFC8120020014808F00FBB00BF78
:102AE000C8120020014800F053B800BFC8120020EF
:102AF0000A460146014800F07BB800BFC81200201A
:102B0000014800F0B5B800BFC81200201FB50A790F
:102B1000064B02920A6808310192022200920CCB05
:102B200008F0F7FB05B05DF804FB00BF58C10000DA
:102B300030B50B7985B00333029301F1440301935F
:102B400002230C460546114A009314310CCA08F0C2
:102B5000E0FB238A04F12C010293E36828460193E9
:102B6000237A009394E80C0008F0D3FB0546237AFF
:102B7000A4F845002279216884F8443004F1470024
:102B800009F0E0F8284605B030BD00BF50C1000094
:102B900038B50546124B134CD4E9020183E8030013
:102BA00019462846FFF7B2FFD4E9040110220E4B64
:102BB00083E80300194628461A72FFF7B9FFD4E9E3
:102BC00006010222094B20341A7283E80300DC60FC
:102BD000194628461A82BDE8384008F098BA00BF66
:102BE000CC1300206CC100002813002080130020AB
:102BF000F8B504460D4B0E4D0F46D5E9090183E8A3
:102C00000300194620461646FFF780FFD5E90B0161
:102C10000222084B1A7283E80300DF60194620463F
:102C20001E82BDE8F840FFF783BF00BFAC13002051
:102C30006CC10000D012002010B50C4630B907F06E
:102C400082FB034B186023600423A380002010BD87
:102C5000EC13002010B50C4630B907F072FB034BA3
:102C6000186023600423A380002010BDF01300200F
:102C70002DE9F74306466D464FF00809404C414B9D
:102C8000414F94E8030083E8030019463046FFF7FC
:102C90003DFFD4E9020187E8030028463B4987F855
:102CA000089008F02FFA95E8030007F10C0383E879
:102CB000030039463046FFF73BFFD4E904010C23FB
:102CC0004FF00208324F87E80300284631493B7233
:102CD00008F018FA95E8030007F10C0383E80300F5
:102CE00039463046FFF724FFD4E906012A4B2B4A28
:102CF00083E803001946304683F80880DA60A3F8B9
:102D00001090FFF715FFD4E90801254B254A264FFF
:102D1000DA60012283E80300194630461A8283F8FC
:102D20000880FFF705FFD4E90A0187E80300284679
:102D30001E4987F8088008F0E5F995E8030007F1D7
:102D40000C0383E803003946194F3046FFF7F0FEC5
:102D5000D4E90C0187E803002846164987F8088063
:102D600008F0D0F995E8030007F10C0383E80300AD
:102D70003946304603B0BDE8F043FFF7D9BE00BF87
:102D800018C2000004160020FC1400209BB10000B3
:102D90005415002083B100004C14002050C20000E4
:102DA000AC15002058C20000A4140020552C0000CF
:102DB000F4130020392C00007FB500230130CDE949
:102DC000043380B2054BCDE901016946042000932C
:102DD000039208F0BFFA07B05DF804FB70230020EF
:102DE0001B22014B1A80704748230020F7B5034689
:102DF000CDE9001207460E4615464FF48040094AB9
:102E0000094908F0B9F90022012311460420074CB2
:102E1000237067706680257103B0BDE8F040FFF74E
:102E2000CBBF00BFF9C3000059C2000070230020CF
:102E3000034610B5094A044609494FF4804008F09A
:102E40009BF90322074B02201A700022A3F80140CD
:102E50001146BDE81040FFF7AFBF00BFE2C300005E
:102E60008DC200007023002030B50C4685B004A947
:102E700001E90C00054603460A4A4FF480400A491E
:102E8000009408F079F905220320084B02991A7082
:102E90009DF80C205D705C8005B0BDE83040FFF708
:102EA0008BBF00BFC7C3000099C200007023002081
:102EB00037B5034605460C4600914FF48040094A59
:102EC000094908F059F90722084B04201A7000221A
:102ED0001146A3F80150A3F8034003B0BDE8304009
:102EE000FFF76ABFACC30000BDC200007023002022
:102EF00038B5094A05460C460B464FF48040074951
:102F000008F03AF90B22064B29461A700020224697
:102F1000BDE83840FFF750BF9CC30000E2C200008C
:102F20007023002008B54FF48040074A074908F095
:102F300023F91322064B1A700022BDE808401146FF
:102F40001046FFF739BF00BF8BC30000F1C200007D
:102F50007023002073B50346144605460E460092C2
:102F60004FF48040084A094908F006F90922084B45
:102F700031461A70A21C5A70032022465D8002B0AE
:102F8000BDE87040FFF718BF75C30000F7C200002E
:102F9000702300202DE9F3411C469046CDE9001333
:102FA00007460E4603460A4A4FF48040094908F096
:102FB000E3F81123224641460520074D2B70231DBF
:102FC0006B706F80AE8002B0BDE8F041FFF7F4BED9
:102FD0005AC3000015C300007023002070B50D46D1
:102FE00003780C4A04460C494FF4804008F0C4F8BA
:102FF00000230A4E691E204689B2738000F040F813
:10300000024628B171882078BDE87040FFF7EEBE17
:1030100070BD00BF52C300003FC300004823002022
:10302000024610B500B3114B1968888890421BD333
:1030300098880024904281BF012009689880996097
:103040009868998828B904B198604FF6FF729A8001
:1030500009E08A4204D001310124006889B2F1E715
:103060000CB19A80986010BD0020FCE72416002067
:103070004FF6FF72014B18609A80704724160020AB
:103080002DE9F04704780546122C0E4688B017D873
:10309000012C18D9A31E102B15D8DFE813F0160049
:1030A00014002F0014005A0014000E0114009F0099
:1030B0001400140014001400140051011400CC007A
:1030C000522C00F0DE8006243FE0022940F0B68159
:1030D000B0F80130B34A4FF48040B34908F04CF8DF
:1030E000B5F80140B4F5007F28BF4FF400742046C6
:1030F000FFF79EFEAD4B1C80002426E0042924D15E
:10310000B0F80330AA4A0093B0F80130A9494FF44F
:10311000804008F031F8B5F8017006ADBEB229461E
:10312000304608F074F8044618B1A04B5F800A24BA
:103130000BE09DF81C303146022B08BF012095E8BA
:103140000C0018BF0220FFF78FFE204608B0BDE834
:10315000F08702278E1FB6B20196B0F80330964A68
:103160000093B0F8013095494FF4804008F004F81E
:1031700005F10508EB1D019600938DF81470CDF84C
:1031800010804246059BB5F80310B5F8010008F021
:103190004BF84FF6FF76B042044606D1AA786B781A
:1031A00043EA0223814A5380C1E70023CDE900337B
:1031B000CDF818808DF81C7008AB0130314613E94A
:1031C0000C0080B208F030F80146B0421CBF00F19C
:1031D000FF3189B22046FFF76BFE8DE7022940F0F0
:1031E0002D81B0F80130764A4FF48040754907F0E0
:1031F000C3FF3146B5F8010008F068F86B4E04468D
:1032000028B16B78AA7843EA022373809DE733885C
:103210000146013BADF81030B5F8010004AB06AA39
:1032200008F066F804460028EBD1BDF810100698A7
:10323000FFF75EFE89E78E1EB6B20096B0F8013049
:10324000614A4FF48040614907F096FF0821B5F8C4
:10325000010008F03BF8044630B1AA786B7843EAE5
:103260000223524A538070E701463346B5F8010005
:10327000EA1C08F012F804460028EED1FFF752FECF
:1032800063E78E1EB6B20096B0F80130504A4FF494
:1032900080404E4907F070FF0421B5F8010008F0A6
:1032A00015F8044600287FF427AF01463346B5F8E9
:1032B0000100EA1C07F0F1FF47E70E1FB6B2022E2D
:1032C00002D0102E40F0BA800024B5F803304FF43D
:1032D00080400093B5F801303E4A364907F04CFF74
:1032E000CDE900446B1D06938DF81C6008AB13E913
:1032F0000C00B5F80310B5F8010007F095FF4FF684
:10330000FF7398420646294F05D16B78AA7843EAA5
:1033100002237B800BE73B882146043BADF80E304F
:1033200004AA0DF10E0307F0E3FF044608B17E8006
:103330000BE73046BDF80E200499FFF70BFE04E7BB
:103340000E1FB6B2022E01D0102E77D10024B5F890
:1033500003304FF480400093B5F801301E4A154900
:1033600007F00AFFCDE9004405F1050AF6B28DF831
:103370001460CDF810A05246059BB5F80310B5F8BF
:10338000010007F051FF4FF6FF7948450746DFF887
:103390001C8023D16B78AA7843EA0223A8F8023074
:1033A000C5E600BFC5C400008DC200004823002050
:1033B000B2C400000AC400009FC4000028C400007A
:1033C00097C4000051C400008EC40000F7C2000082
:1033D00085C4000077C4000064C40000CDE9004447
:1033E000CDF818A006AC8DF81C60013094E80C00F4
:1033F000494680B207F018FF0546B8F80030484546
:10340000A3F1060318BF00F1FF352246ADF80E30D8
:103410004FF0000138460DF10E0318BFADB207F0B2
:1034200067FF044610B1A8F802708EE629463846B8
:10343000BDF80E30069AFFF7ADFD86E6042484E65B
:103440000022014B1A6070473418002003291FB571
:103450001CD90288131D994218D304D84388042B21
:1034600003D0062B06D0012011E011460430FFF7EF
:10347000B5FDF8E70022CDE90222064A694600922E
:1034800002221846019207F065FFECE7002005B024
:103490005DF804FB5810002037B500220DF107003D
:1034A000114600F05FF89DF807300C4C0BB100237B
:1034B000236021680A4DC1F5017292B229440DF1D1
:1034C000070000F04FF82168014428462160FFF70B
:1034D000BDFF08B10023236003B030BD34180020C5
:1034E0003016002010B504464FF4807300210E4AB8
:1034F0000E4807F0C2FF4FF4807300210C4A0D48BC
:1035000007F0BBFF2046FCF71BFE07F077FF00F03B
:1035100035FD08F0A6F8830705D500F0F9FBBDE8F6
:10352000104000F049BA10BD681900205019002061
:10353000501800203818002008B513460A460146E6
:10354000024808F059F8C0B208BD00BF5019002069
:1035500008B5034807F09AFF003818BF012008BDDE
:103560005019002073B50E460446019207F00BFA7D
:10357000214605463246019B044808F03DF80446C2
:10358000284607F004FA204602B070BD3818002023
:1035900008B5034807F07AFF003818BF012008BDBE
:1035A0003818002073B50E460446019207F0EBF977
:1035B000214605463246019B044807F0E8FF0446D1
:1035C000284607F0E4F9204602B070BD50190020EB
:1035D00010B50C460146044808F038F8A04234BF44
:1035E0000020012010BD00BF3818002073B50E4622
:1035F000114605460192FFF7EBFF044628B132461B
:103600002946019B024807F0C2FF204602B070BD68
:103610003818002010B5034CA07900F007FE0023F5
:10362000236010BD681A00201FB50B4C0B4AA37A0B
:103630000B490393637A4FF480500293237A0193EA
:10364000E3790093A37907F097FDA01D00F072FDC8
:103650000023236004B010BD681A002089C6000052
:10366000D4C400001FB5104C104AB4F80D304FF40C
:1036700080500293B4F809300D490193A379009367
:10368000B4F8073007F078FDB4F80710A07900F01F
:1036900083FDB4F80D10B4F8090000F091FD00238B
:1036A000236004B010BD00BF681A00205BC6000094
:1036B000FDC40000014B998018607047681A002013
:1036C0000022014B1A607047681A0020034A1368F1
:1036D0001BB19288824200D118477047681A0020B7
:1036E000014B18701846704777230020162838B50C
:1036F00003464FF0020514BF034613230B4C0C4A3C
:103700004FF480500B496370257007F035FD294652
:10371000204600F06DFD00F0C9FE074B074A05305A
:103720001A60627898809A7138BD00BF77230020B4
:1037300023C6000034C50000681A002015360000BA
:1037400030B5044603787B4A4FF480507A4985B0FF
:1037500007F012FD23780C2B0AD80C2B0BD8DFE8CE
:1037600003F05A3F790A0A0A0A0A890A0A0A160065
:10377000142B00F0A880204600F024F9002867D11F
:10378000072223786D4802210270437023E0A3884A
:103790004FF4805001936388694A009363786949C4
:1037A00007F0EAFC4FF0FF32644C0C23A2700222B7
:1037B000E270002223706271012340F2FF226370E5
:1037C0002371604900924FF480505F4A019307F0E3
:1037D000D3FC0621204605B0BDE8304000F008BD0E
:1037E000E3885A4A5A494FF4805007F0C5FCE17902
:1037F000A379584A43EA012393801346564943F874
:10380000061BD4F80110C2F80610B4F805209A80FF
:10381000E2799A711CE06389504A4D494FF4805017
:1038200007F0AAFCE27AA37A4A4943EA02238B8092
:103830000B464B4A43F8062BD4F80120C1F806206A
:10384000D4F805205A60B4F809201A81E27A9A72F5
:1038500005B030BD6378434A4FF48050424907F0C9
:103860008BFC00F023FE3B4B404A05301A609880E9
:103870006278CEE7D4F80530D4F801203C49CDE990
:1038800000234FF480503B4A07F076FC00F014FA16
:10389000D4F80130294C034003F0FF0320F0FF006F
:1038A000184309252346002203F8015BC4F80100F0
:1038B0002F495A60CDE900024FF480502E4A07F09C
:1038C0005BFC294686E7B4F807302C4A0293B4F82B
:1038D00005304FF480500193B4F803302849009329
:1038E000B4F8013007F048FCB4F80310B4F8010054
:1038F00000F074FC1523114C6FF02702237007238E
:10390000E2702371E271237200216FF004004FF422
:10391000FB62FB236070A1706071A1714FF4805055
:10392000CDE9013216490092164A07F025FC09211B
:1039300050E700BF1AC600004AC5000077230020E8
:103940000FC600005BC50000B1C60000A3C60000A2
:103950008CC50000681A00202936000075C60000DA
:10396000653600004EC6000034C500001536000064
:103970009CC5000043C6000034C6000005C6000018
:10398000B5C50000F7C5000010B5084B4FF48050D6
:103990009C79074A2346074907F0EEFB204600F0D2
:1039A00017FCBDE81040FFF78BBE00BF681A00206F
:1039B0001EC70000C0C600000122014B1A707047EC
:1039C00083230020244B73B51E7804462EB1037860
:1039D000162B05D0182B27D00026304602B070BD1C
:1039E00083781E4A009343781D494FF4805007F0B6
:1039F000C3FB6378A47817201C4004F00304022C56
:103A000018BF0124FFF76CFE0546447084702346FE
:103A10004FF48050134A1249009407F0ADFB022185
:103A2000284607F0E8FCD8E7B0F803300E4A0193C7
:103A300083780E49009343784FF4805007F09CFB45
:103A4000B4F803100A48FFF735FED4F80120094BFB
:103A5000C3F80620C1E700BF8323002049C7000048
:103A6000D0C600003EC7000031C70000F0C600000D
:103A700089390000681A002013B50D4B01281B88F6
:103A80000C4CADF80030ADF8043002BF02238DF8C5
:103A9000003004236946206808BF8DF8043007F021
:103AA00054FE206801A907F066FE02B010BD00BFF9
:103AB00050C700007C1A002070B5334C11464FF4FB
:103AC000867086B01E46154607F059FB236933B948
:103AD00029464FF4837007F052FB06B070BDA5F184
:103AE0000802324321D101AA0321206807F0ABFE6E
:103AF000636860615B7A04F1180123769DF80430F5
:103B00000220DA1F53425341627E63F30002039B9B
:103B10006276E361BDF8063063832369984701222A
:103B20000021206807F095FED7E705F17F42324378
:103B300005D10021012006B0BDE87040184715F4FA
:103B4000A04209D04FF480714FF4817007F017FB49
:103B5000002103202369EEE705F4A0631A4308D08F
:103B600001214FF4817007F00AFB0021FF20236937
:103B7000E1E705F0A042134319BF012140F2011013
:103B800029464FF48370EEE77C1A00200A4601466E
:103B900002484FF40073006807F051BE7C1A002001
:103BA000F0B50446164D174A6B68807A5B7A85B08B
:103BB000D75C0E46FFF760FF237AB9B2022B0CD117
:103BC000002328681A4600F0FBFCA8B10021FF2062
:103BD000334605B0BDE8F0401847002220688DF854
:103BE0000C3002900092286802ABADF80D208DF8E1
:103BF0000F2000F0F3FCE8E72E6105B0F0BD00BF38
:103C00007C1A002052C700002DE9F04104461D4DEA
:103C10001D4A6B680E465B7A86B0D15C807A019152
:103C2000FFF72AFF237A4FF00108022B02BF00237F
:103C3000029301238DF80C30636818BF226803F1EA
:103C400064030493637A4FF0000418BF0292019951
:103C50008DF8143002AA234628688DF815808DF857
:103C6000164000F0C7FC074642462146286807F088
:103C7000F0FD2FB12146FF20B04706B0BDE8F0812E
:103C80002E61FAE77C1A002052C7000008B5002117
:103C90004FF4857007F073FA0022044B03211A6178
:103CA00018680122BDE8084007F0F2BC7C1A002029
:103CB00000487047841A0020014B188C704700BFE1
:103CC0007C1A00207FB502238DF80630064B5A8BF4
:103CD00059690332ADF8042018686A4607F0B7FD49
:103CE000009807B05DF804FB7C1A0020002313B590
:103CF000064C0093437AD0E900216060206807F009
:103D0000E5FD00F00DF802B010BD00BF7C1A0020E8
:103D1000024A138C43F48073138470477C1A00208A
:103D200038B50D4C238CDB050CD563680B4D1B7A25
:103D30002A789A4206D0012B05D0022B07D063685F
:103D40001B7A2B7038BD206800F0E0FEF7E7206892
:103D500000F0E2FEF3E700BF7C1A0020842300207D
:103D600010B50024064B1C60064B1C7007F071FB5D
:103D7000B0FA80F3044A5B091370044B1C7010BD49
:103D8000BC1E0020862300208723002085230020DE
:103D900010B5074B1C782CB9064B1B7833B107F0D4
:103DA00060FB044600F066F8204610BD8124F9E768
:103DB000862300208723002038B50A460F49034692
:103DC0000978C1B10E49087850B90E4C24783CB935
:103DD0000D4C20681518B5F5806F02D98220087047
:103DE00038BD1946094B184407F0ACFF2560BDE803
:103DF000384000F00DB88120F2E700BF8723002093
:103E00008623002085230020BC1E0020BC1A002031
:103E100038B5134B134D1A782968022A0ED003299E
:103E200001D8002038BD104A1068104A904203D0D3
:103E300084200F4B1870F5E702221A700A48FCF72D
:103E40007DFB04462A680749074807F0DFFA002C83
:103E5000E7D041F207039C42E3D08520E9E700BFA9
:103E600087230020BC1E0020BC1A0020EB17A603ED
:103E7000862300200022014B1A7070478723002000
:103E80001FB5124C1148637A0133DBB2272B88BF70
:103E900025236372FFF72AFF0023CDE90233E3688D
:103EA000627C01930123617DD207094801F102017F
:103EB0008DF80C3048BF8DF80E30FFF767FE0549CE
:103EC00001A8FFF76DFE04B010BD00BFC01E0020AA
:103ED000D41E0020D93E0000022810B51BD002D805
:103EE000012805D0FEE7032843D0FF2841D0F9E799
:103EF000214C637C990707D5FFF7C8FEFFF7C0FF89
:103F0000637C6FF341036374637CDA0730D4BDE8EC
:103F10001040FFF7B5BF4B78DB072AD54C682178F6
:103F200001F00F03032B11D0052B22D1C90904F195
:103F3000080007F098FBD8B1FFF7A8FEFFF7C2FE14
:103F400001462046BDE8104000F0B6BAC90904F1A8
:103F5000080007F088FB58B1074C94F83D1004F1B5
:103F60003C000231FFF712FE637C43F002036374EE
:103F700010BDFFF78BFECAE7C01E002010B5094C2C
:103F800000215C2204F1080007F003FF42F21073E5
:103F90000549E360054BC4E9001342F20153238154
:103FA00010BD00BFC01E0020D6BE898E55555500DD
:103FB00038B50446FFF76AFE002C3FD0204C257C24
:103FC000627CB5FA85F35B0963F300026274FFF764
:103FD0006FFE837905F00F05C3F3000345EA8315EF
:103FE000237D23F04F031D43637D25750BB9062305
:103FF00063750368C4F816308288124B9A80FFF705
:1040000057FE837994F83C20C3F300039B0143F0EF
:10401000040322F04F02134384F83C3094F83D30FF
:1040200013B9062384F83D300368C4F83E30828813
:10403000054B9A80BDE83840FFF722BF38BD00BF6E
:10404000C01E0020D61E0020FE1E002020290A4689
:1040500008B509D8054B06315975014603F11C0016
:1040600007F070FE002008BD1220FCE7C01E0020F3
:1040700020290A4608B50AD8064B063183F83D10B8
:10408000014603F1440007F05DFE002008BD122048
:10409000FCE700BFC01E00200A20D0B50B4CE38C0B
:1040A000584305F009FD0646A08C0F4605F004FDB7
:1040B0000022074B05F06AFD02460B4630463946A2
:1040C00005F08EFE05F074FF2083D0BD241F002074
:1040D0000000F43F1FB5154C40F60100218907F0A0
:1040E0004EF8A37E5A061FD423F0070343F00103C2
:1040F0002089A376FFF7EAFAA37A04F10C0023449F
:1041000093F82A306375FFF7F1FDD4E90032A3EB91
:10411000520103EB520302934FF48033019101A843
:1041200003490393FFF770FD04B010BD241F002066
:10413000B94200000022134630B58BB0D910415C63
:1041400003F007042141CC0742BF02F12801694472
:1041500001F8283C03F1010348BF0132252BEDD1C2
:1041600000230C4CD910415C03F007052941C90715
:104170005FBFB3FBF2F102FB1131283169444CBF40
:10418000D9B211F8281C0133252B04F8011BE9D101
:104190000BB030BD4E1F002010B540F2E244074A7C
:1041A0006043136800F5807004FB0131536801EB34
:1041B000500118441160506010BD00BF241F002042
:1041C000024B9884D984FFF767BF00BF241F0020EB
:1041D000014B1875704700BF241F0020C908884292
:1041E00028BF0846014B1885704700BF241F0020D8
:1041F000044B5A6D22B95865A3F858100120704736
:1042000000207047241F002010B504460346054ACD
:104210004FF40060044906F0AFFF2046BDE81040AF
:10422000FFF764BAC6C700007AC7000010B504469D
:104230000346084A4FF40060074906F09DFF074A0D
:104240002046BDE81040937E43F04003937607F08C
:10425000D0B800BFB7C700007AC70000241F0020F5
:1042600010B5144CA37E5B0623D4FFF70FFD40F27C
:10427000E243A18C226803FB0122A37A226094F816
:104280004F2013442522B3FBF2F002FB10332289A6
:10429000A372013222810A22636802FB0133636048
:1042A000238B5A1E228323B9BDE810400820FFF754
:1042B000BDBF10BD241F002002282DE9F743804612
:1042C0000E460BD003D8012800F0DC80FEE703285F
:1042D00000F0DE80FF2800F0DB80F7E74F78714CBC
:1042E00017F0010763D14FF0FF3140F6030006F0ED
:1042F00046FF3D46A37E6C4F13F0200F12D0616D38
:104300006FF34513A376002900F09E803B7894F864
:10431000582043F003033B707A70B81C07F012FD7D
:1043200000236365FFF714F9A37E60F34103C3F331
:104330000012C3F3C001920042EAC102A37642EA2E
:1043400000133A7803F01C0322F01C0213433B7065
:1043500040F60200398806F012FF7978524802319F
:10436000C9B2FFF713FCA37E7668D90709D56FF3AE
:104370000003A37600236360FFF7A4FC2060FFF72F
:104380008BFE002D00F08B80337803F00303022BAB
:1043900005D0032B6FD0012B40F0818000252846EB
:1043A0007278B11C03B0BDE8F043FFF71FB9D1F834
:1043B000049040F60300B9F8001006F0E0FE99F80A
:1043C0000030A27EC3F3001363F3820299F8003039
:1043D000A276C3F3C001C2F3001291422FD103F0C1
:1043E0000303022B29D0032B08D0012B27D1002057
:1043F00099F8011031B3FFF7EBF807463D46A27E6E
:1044000099F80010C2F3C003C1F38001994208D0AB
:1044100083F00103DB0043F0200322F02802134362
:10442000A376002F3FF466AFA37EC3F3001282F0A1
:10443000010262F30413A3765CE73846D8E700254F
:104440002F46DCE70D46DAE794F82820B91C0DF179
:104450000700FFF771F858B19DF80730002B08BF2F
:104460004FF001083B78787068F301033B7059E71F
:104470004FF00108F6E77178B01C03B0BDE8F043D7
:10448000FFF75EB9074B9B7E9A0708D45B0706D4FB
:10449000FFF7E6FE03B0BDE8F043FFF71BBE03B035
:1044A000BDE8F083241F0020801F0020014B1889E5
:1044B000704700BF241F0020F7B5274D04460E4665
:1044C0005C220021284607F064FC2023AB760523FC
:1044D0002B83627E237E012743EA0223AB84627F23
:1044E000237F04F11E0043EA0223EB8494F8233077
:1044F000C3F3040385F84F3094F82330C3F3421319
:1045000085F850301B232B85FFF714FED4F80E30AE
:10451000E27CEB60A37C2E6043EA0223227D2F75B0
:1045200043EA02432B6195F84F30607DAB72E18A1C
:104530003944FFF731FEFFF7CDFDEB8C074A084900
:1045400000934FF40060AB8C06F016FE204606F098
:104550004EFF384603B0F0BD241F0020AAC700005C
:104560008DC70000F8B50D4610B900242046F8BDEF
:104570000E4F3E68002EF8D100F056F80446002891
:10458000F3D0386000F09CF8204607F096F838B178
:1045900030463E6000F094F8204607F089F8E4E7E2
:1045A000002DE3D02046A847E0E700BF8020002090
:1045B000024B1868003818BF012070478020002087
:1045C00010B507F051FA044618B9034B01215B6896
:1045D0009847204610BD00BF2410002010B507F0FA
:1045E0004CFA20B9BDE81040014B1B68184710BDBC
:1045F0002410002010B507F0C4F820B9BDE8104021
:10460000014B1B68184710BD24100020431E0333C4
:1046100006D8044B984228BF1846642838BF642047
:10462000704700BF40420F00F8B5054606F0ABF9F1
:1046300007460E4B1E6826B9384606F0A8F93446E0
:1046400010E0B46884B1237C9C46DB070CD44CF0AA
:10465000010C95E80F0084F810C084E80F0038467C
:1046600006F095F92046F8BD3668E4E718100020FA
:1046700038B505460C4641B10B6833B11B680133B0
:1046800003D0CB680BB18B684BB907F078FABDE863
:1046900038404FF486724121002000F021BA0846CC
:1046A00002F0BCF80023044A85F810311360034A75
:1046B000C5E93043136038BD882000208C200020DD
:1046C00010B5044618B9054B054A136010BD00F03B
:1046D00081FBD4F8CC30002BF6D1F4E799B600007A
:1046E0001C10002010B50C4600F0B4FB054B002157
:1046F00003205B6898471CB101F04CFB0128FBD1FB
:1047000010BD00BF2410002008B502460868FFF75E
:104710007DFF08604868FFF779FF48608868FFF709
:1047200075FF8860C868FFF771FF0B69C860581C87
:1047300003D00B48834228BF03460B614B69581CCA
:1047400003D00748834228BF034688694B61FFF7BF
:104750005DFFBDE808408861104601F055B900BF13
:1047600040420F002DE9F84FD0F8C43080460E4685
:1047700013B1038B8B4274D0D8F8C0B0BBF1000FDB
:1047800041D0DBF80830002B3DD0DBF80C20D2B351
:10479000D8F8D4A0BAF1000F38D04FF000094D4638
:1047A0004F4601E0DBF8083005EBC50403EB840459
:1047B000E3890135B34215D8238AB34212D3B4F941
:1047C0001220B8F92430934252DD404698F8041183
:1047D000FDF7C6FD98F8153081468342274604D977
:1047E000DBF80C209542DDD337B300233A46404630
:1047F0001946D0470020A8F81860C8F8C47088F897
:104800000D91BDE8F88F0320BDE8F88FD14647F63B
:10481000FF755446514604EBC40703EB8707FB8939
:10482000B34218D83B8AB34215D3B7F91220AA4233
:1048300004D14FF0FF09DDE70120E2E7404698F898
:104840000411FDF78DFD98F8153081468342D1D9CA
:104850003946DBF80C200134A24205D9DBF80830D8
:10486000D9E70020BDE8F88F0029E5D00F46C1E761
:104870002746BAE72DE9F04182B09DF820C0D0F874
:10488000D48004460D4616461F468DF807C0B8F181
:10489000000F2ED000220DF107031146C047D4F8B7
:1048A000C020194B20461A60184BD4F8C4201A6057
:1048B000174B1D6000F0ACFD05461EB9284602B03E
:1048C000BDE8F081B0FA80F04FF4737233214009F3
:1048D00000F006F93946204600F09AFF05460D4BD8
:1048E00020461B68D4F8C4109847284602B0BDE89B
:1048F000F081417D90F80D316246994228BF1946FA
:1049000000F00CFDCBE700BF882000208C200020A9
:10491000842000201C1000202DE9F04385B00546BE
:104920000F4614461E4601F0FDF901F01BFA00285F
:104930003BD1DFF82481D8F800301BB1D5F8C02076
:1049400093421FD001F026FA012838D1D8F8003060
:104950008BB31A687AB3D5F8C01009688A4246D07A
:10496000D5F8C4301A68284607F072F838B901241F
:1049700033462246394628460096FFF77BFF05B0AE
:10498000BDE8F083304B1B68002BDBD0D5F8C4208A
:104990009342D7D12D4B1B689F4222D001F0FAF9E8
:1049A0000128E5D04FF001090BE00022264B1A60E8
:1049B00001F0D0F9BDE7D5F8C0301968D0E74FF065
:1049C0000009012000F046FA214B002103205B681A
:1049D000984701F0DFF90128FBD1B9F1000FB5D0FC
:1049E000C6E706B174B9002005B0BDE8F083164AE9
:1049F0001268D2B11168D5F8C42012689142B6D0BD
:104A00005968B0E70122D5F8D4408DF80F2084B161
:104A10000022284611460DF10F03A0470D4B2846F2
:104A20001B68D5F8C4109847DDE7D5F8C420126894
:104A3000E6E7697D95F80D312846994228BF194669
:104A400000F06CFCEAE700BF8C20002084200020EE
:104A5000241000201C10002088200020F8B50E46ED
:104A6000054605F090FF314607462846FFF77AFED7
:104A7000044620B1384605F08AFF2046F8BD0346BB
:104A8000024631462846FFF747FF0446384605F000
:104A90007EFF2046F8BD00BF4FF4007307B50A49FA
:104AA0000DF10602ADF8063006F0CBFEBDF806307B
:104AB000B3F5007F05D1022808BF002003B05DF8E0
:104AC00004FB0120FAE700BF90200020024B196090
:104AD000024B1860FEE700BF201000209422002047
:104AE00008B550B90548064B01601A60054B1A68B5
:104AF000054B1A601868FFF7E9FF08BD2010002079
:104B0000902200208020002094220020014906F0FD
:104B1000ADBE00BF915F0000014906F0A7BE00BF17
:104B2000655F0000431C07D06FF0FF02034B10408D
:104B30005A62A3F580535862704700BF00E000B886
:104B400010B504234FF03A4101240A4AD1F8180164
:104B5000C2F81831C2F814314C634FF4005111639C
:104B6000410742BFC2F81431A2F58052C2F8183191
:104B700010BD00BF002000BA37B50C46224D59B910
:104B80000A46072104F0DEFD204B2C655C6003B073
:104B9000BDE8304004F0F6BD0722114604F0D2FD16
:104BA00007221B4B0121DA60237901A885F85030D8
:104BB0006379019307F0A2F8019BC2B2D34000F0E1
:104BC0000F0040EA031085F85100A27985F85220C1
:104BD000E27985F8532022686A6501932BB102EBD4
:104BE000430132F8023B8A4208D12279013A134448
:104BF000084A136204F0C6FD03B030BD32F8020B60
:104C0000834228BF0346EEE7003F00B0503F00B0AC
:104C1000006000B8004000B800F01803182B074BE4
:104C200003D10022C3F880207047010701D501227B
:104C3000F8E7C206F5D540F20112F3E7003F00B0F5
:104C40003A4B2DE9F3411D6840F2022317460B4011
:104C500000F00102134306460C463AD0A10709D5DD
:104C6000334BD3F8F43E03F0C003402B02BF0221C4
:104C7000304B99604FF000080AB300230022012056
:104C80000021CDE9008803F099FB4FF0FF31284661
:104C900002F08AFD414668830120FFF723FD696B1E
:104CA00005F1D80002F0F2FD23490868FFF73AFF4A
:104CB0004FF0FF330B602B7C43F008032B74A205ED
:104CC00007D50121284606F0A7FD24F40074064309
:104CD0000C43D5E94A233240234052EA030103D072
:104CE0001649284609688847FB070FD51449154A15
:104CF00008680021136811600121134A117003B183
:104D00009847124B002102205B68984717F00E0F5E
:104D100008D04FF4FC723B21002002B0BDE8F04106
:104D2000FFF7DEBE02B0BDE8F08100BF80200020AA
:104D3000003000B0001002B8301000202C1000200D
:104D4000A8220020A42200208A2300202410002072
:104D5000F7B5D0E94AC70446DDE908658CEA0600E4
:104D600087EA05011040194080EA0C007940C4E947
:104D70004A0123F4004105EA0103002522F0010065
:104D800043F4007306EA000243F00203CDE9005544
:104D900003F014FB237C9A0717D5D4F82C319B051C
:104DA00013D54FF48031204606F036FD237C65F3A1
:104DB00041032374D4E94A2302400B4052EA030121
:104DC00003D00349204609688847002003B0F0BD9E
:104DD0002C10002038B10368044A002B08BF13468A
:104DE000034A13607047014BFAE700BFF3B80000B5
:104DF0002C100020024BD86E00F00F00704700BF4F
:104E0000003F00B070B531F00F0406460D460ED1DC
:104E100000F0C0FF01280CD107493046CB6E23F0CB
:104E20000F022A43CA6606F038FE204670BD0120F4
:104E3000FCE70220FAE700BF003F00B0014B186F0B
:104E4000704700BF003F00B0014B0020196770475A
:104E5000003F00B003282DE9F7434CD8274B13F847
:104E60000080274B1E5C274B13F8009005F08BFD4C
:104E7000074603F091FC054640B100230022CDE92E
:104E8000003301200023002103F098FA03F08CFC8A
:104E900048B100230022CDE90033002000234FF465
:104EA000004103F08BFA26B3174BDC6C04F00804C6
:104EB000164B3146DC64404603F09AFE4A463146C2
:104EC000404603F021FF124BDC6465B1114B1868BA
:104ED000416BD83002F0DAFC0F490868FFF722FE78
:104EE0004FF0FF330B60384603B0BDE8F04305F0E8
:104EF0004EBD3446DCE703B0BDE8F083E4C70000F4
:104F0000E8C70000ECC70000004000B8006000B82F
:104F1000005000B880200020301000200F4A136C91
:104F200013F0A00F15D1506C10F0040013D10C4BEE
:104F3000D3F8F43E23F07F4323F0FF035BB1D36843
:104F4000C3F30363092B07D0B3F10C0018BF012092
:104F50007047002070470120704700BF000002B872
:104F6000003000B0F8B50E46074688B9194B1B68EB
:104F70004BBB0125C1F12704C4F11C03002BB8BFB2
:104F80005B42232B23DC7DB1134B1E700020F8BD48
:104F900000F000FF012818D10F4B002593F90040C5
:104FA000C4F12704A41BE7E7BE7405F0ECFC0B4A30
:104FB000E402136A04F4FF2423F4FF231C43146265
:104FC00005F0E5FCE2E70320E1E70220DFE701204E
:104FD000DDE700BF802000208923002000C000B84A
:104FE000094B08465A6A91020BD4D3F80021D20724
:104FF00008D4D3F8803013F4706F14BF0120002060
:1050000070470120704700BF004001B8F8B5144652
:105010000D46426B6F0782EA040303EA010383EA49
:10502000020343633D4A01F00B0323EA0401D16408
:1050300003EA0403A2F580520646D36410D5012189
:10504000FFF7CEFF60B103F075FD4FF4007314F06D
:10505000040F14BF324A334A53620422324B1A649B
:10506000E90606D514F0100F14BF00221B222F4BA7
:105070005A652A061DD5230616D54FF40012284B73
:105080001A62012203F58053C3F8002105F07BFC6E
:105090000E210746032002F04DFB40F20122234B74
:1050A0003846DA6205F073FC214606F1D80002F0BA
:1050B000EDFBEF0503D5E00529D502F00BFBA905B3
:1050C00003D5A20526D502F011FB15F0600F09D01B
:1050D000D6F8C810304606F00DFC8022144BD86775
:1050E000144B1A612B0510D503F024FD124A14F459
:1050F000006FD2F8F43E14BF43F0006323F0006366
:10510000C2F8F43E0422084B1A640020F8BD02F0F5
:10511000DBFAD4E702F0E4FAD7E700BF006000B89A
:10512000005001B8006001B8002002B8004000B88B
:10513000003F00B0000002B8003000B0014B186A18
:1051400002F00ABB004001B8014B186A06F08FBD9F
:10515000004001B8437C5A1F012A01D9082B05D110
:105160004B7C2BB1012B05D0022B05D006F0EBBBFD
:1051700002487047024870470248704720A1070064
:1051800048E8010040420F0070B50E4605F0FBFBF9
:10519000054600F019FE044620B1284605F0F7FB4D
:1051A000204670BD03F0C6FC104B3278D3F8F43EB5
:1051B000022A23F0F00315D0042A0CBF0222002299
:1051C00043EA02137278022A0ED0042A0CBF02228C
:1051D000002243EA8213054AC2F8F43E0422044B3B
:1051E0001A64DAE70122EBE70122F2E7003000B0AF
:1051F000002002B870B50E4605F0C5FB054600F06C
:10520000F9FD044620B1284605F0C1FB204670BDDB
:1052100003F090FC104B3278D3F8F43E022A23F0CE
:105220000F0314D0042A0CBF022200221343727809
:10523000022A0ED0042A0CBF0222002243EA820373
:10524000054AC2F8F43E0422044B1A64DBE701224B
:10525000ECE70122F2E700BF003000B0002002B806
:10526000F8B50D780446022D0E4690F804710AD167
:10527000002001F021FB002844D1012001F01CFB9B
:10528000002818BF0125284601F016FB00283BD056
:1052900084F80451B3882846A4F808317388A4F828
:1052A0000631B38804F58276A364FF23A37506F064
:1052B0006CFC6075304601F0BFFA054628BB3046ED
:1052C00001F0F0FA054600BBD4F8C43053B194F8AD
:1052D0000411B94206D02046B3F91220FDF740F878
:1052E00084F80D01204601F025FB0A49A4F80801C5
:1052F0000123094AD1F8FC1004F1D80002F02EFE77
:105300002846F8BD0025BEE70125032384F80431B3
:10531000F6E700BF004F00B0A83F00B070B50546EB
:1053200090F804010C4603281DD0FF291DD01AB1A6
:105330004FF0FF320E4B1A6006F027FC064695F838
:10534000040101F0E9FA844228BF0446E4B2B44201
:1053500038BF3446E0B2A87501F0E2FBA0F1FF03CC
:105360005842584170BD0220FCE70120FAE700BF17
:105370003410002038B590F804310446032B3FD098
:10538000D0F8C4504175C5B3D0F8D430DBB990F82B
:105390000D318B421DD300222046FFF7BFFF05468B
:1053A00078B9184B1B78012B0BD8204601F0C2FAB4
:1053B00015490123154AD1F8FC1004F1D80002F078
:1053C000CDFD284638BDB0F92420B5F912309A42F7
:1053D000E1DD0022204694F80D11FFF79FFF0546FE
:1053E0000028EED1C4F8C400204606F096F9014624
:1053F0002046BDE83840FFF731BBFF238375E0E767
:105400000225DEE752100020004F00B0A83F00B098
:1054100070B5C36B8AB0012B03D1002420460AB0BB
:1054200070BD05464E4906F0DCFBD5F8C4602C8BF8
:10543000C5F8C80026B1336813B15B68002B5BD197
:1054400005F0A1FA05F0A3FA0122B3898DF80E2028
:10545000E31A9BB2D6E9012101FB0322414C424EE3
:10546000ADF80C30029200F095FC0128FBD1236CC2
:10547000DA07F8D4336CDB01F5D43C4BD5F8C8100F
:105480001B68994206D0284606F034FA8022384B31
:105490003261D867099128469DF80E20029904AB25
:1054A00002F080FA20BB04A901A802F077FC0446B0
:1054B000F0B92A8B2F4B5A642B7C60F341032B7479
:1054C00006F01FFBD5F8C4305B691A68431EDBB2D7
:1054D000FD2B009216D9D61C14D9274B01321B681C
:1054E00018D0D91C9AD802466946284600930CE089
:1054F000022420460AB070BD1A68032AA0D99A6A0D
:10550000520EA2E702466946284606F0E5FA204612
:105510000AB070BDDA1C05D80246694628460093D9
:1055200006F0DAFAD5F82C319B0504D42B7C43F035
:1055300002032B7472E74FF48031284606F06CF9B1
:10554000D5F82821D5F82C3102400B4052EA03014E
:105550003FF464AF09492846096888475EE700BF01
:10556000FC4F00B000C002B8000002B89C2200202E
:10557000003F00B0008001B8401000202C10002037
:1055800038B590F8105104463DB305F0FCF91F22E0
:10559000124B013D5A621540114A12495562D4F826
:1055A00014518D66D4F81851CD66D1F80011C90791
:1055B0000FD54FF0FF31C3F80411216CC2F804116C
:1055C0004FF0F041C3F81011E37CDB060B40C2F84A
:1055D0001031BDE8384005F0DAB938BD006001B8D7
:1055E000005001B8004001B82DE9F74F814615463B
:1055F000084619B9012003B0BDE8F08F002AF9D0A0
:10560000032904D8002101F053F80028F2D0B0F9A2
:10561000001083780029048807794679B0F806C01D
:1056200003F00702C0F2C280D01F41424141052A67
:10563000297394BF0021C3F30011C3F38010697371
:105640009909287401F00201C3F3C0000143C3F3B8
:1056500040136974AB74EF74D9F83430A5F814C0F2
:10566000D90600F18E80063A012A00F28A80504B5A
:1056700001275B6D4FF03A431A6DDB6C083C03F079
:10568000070306339F400023013F42F0005A3C408D
:105690001AF804B001343C40621D3A40AB60531C20
:1056A0003B401AF803301AF80280BBF1800F48EA39
:1056B000032899F8113016BFABF1320B6FF07F0B56
:1056C0004FFA8BFB83B30020D9F8D0300BB1594689
:1056D0009847631CE87385F80EB03B401AF8031036
:1056E00001333B401AF8032001333B4041EA0221D9
:1056F0001AF8032001333B401AF8033041EA024113
:1057000041EA036118F4804305D02A4B1B6F002B3C
:1057100014BF0023022348466A7C02F01BFD0623C7
:105720002860AB71002066E718F4805F25D0D9F8B7
:10573000C830ABB11A68022A12D993F82430C8F3E2
:105740000B00C0000BB1B0FBF3F08642BBD80028C1
:10575000B9D0C6EB0626B6FBF0F0C043C0B2B3E743
:1057600029464846FFF7F6FC0190484606F0DBF86C
:10577000019BB3FBF0F0C3B2E1E71AF8040040006C
:10578000ECE700230020EB730B4BDA692860C2F3CF
:105790000723120448BF63F0FF035AB212F1800FCF
:1057A0001CBF323B5AB2AA73A87124E7022022E739
:1057B000004000B8003F00B000C000B870B54FF026
:1057C0003A434FF480640A4DD3F818610020C5F8BD
:1057D0001841C5F8144103F073FA4FF400532B67D6
:1057E000730542BF034BC5F81441C3F8184170BD9F
:1057F000002000BA001000BA082310B1024A136456
:105800007047024AFBE700BF001002B8002002B850
:10581000F8B504460E4619B990F91030002B47DB55
:105820004FF6FF73A18BD4F8C870994204D0354B62
:105830001B680BB120469847334D2B68BB4255D0AF
:10584000324B1B683BB11FB13A68002A50D0BF6889
:105850003946204698470727204601F06BF8002E6E
:105860003AD003F08FFF0620294B94F9122093F9C8
:1058700000302849C3F127039B1A0A6ADB0222F48D
:10588000FF2203F4FF2313430B62D4F8C820224BFA
:105890002A60986701F0AEF9002501211F4A204BCC
:1058A0001170204683F8885006F0F7F82846F8BDB6
:1058B0004FF6FF72037C144D61F3C713D0F8C87024
:1058C00003742B688283BB4217D0104B1B68002BDC
:1058D000B9D101F02FF8072712493B46124AD1F8F7
:1058E000FC1004F1D80002F039FBBAE70127B3E756
:1058F0001746204639469847ADE701F01BF80127C7
:10590000EAE700BFA02200209C220020982200206D
:105910008923002000C000B8006000B88823002060
:10592000003F00B0004F00B0A83F00B008B55822BB
:105930000021064806F02DFA1022FF21044806F047
:1059400028FABDE8084003F01DBF00BFF83E00B0D4
:105950003C3F00B0032337B580F804310023837443
:105960006923C0F8E03074234FF0FF35A0F8F4301D
:1059700064230446C0E93933C0E93B33C0E9075525
:1059800085644575C58202F017FF2046FFF7CEFFFC
:1059900094F912102046FFF7E5FA6023114A40F609
:1059A000FF71D3644FF03A42116311670E4A2946E2
:1059B000D36440220D4B20461A64626BFFF726FB2E
:1059C0000E230022CDE9003340F20223104619468F
:1059D00002F0F4FC00F080FF204603B0BDE8304048
:1059E000FFF75AB8004000B8005000B8002002B8D5
:1059F000044BD3F8F43E13F0806F14BF2320002033
:105A0000704700BF003000B00246F8B5B0F808415A
:105A100000F1D806FFF7ECFF0B68013304BFD2F8A2
:105A2000E0300B604B68013304BFD2F8EC304B60C0
:105A30008B685D1C3AD1D2F8E850CB688D605F1C52
:105A40003BD1D2F8E4700B69CF60013304BFD2F8C8
:105A5000D8300B614B69013304BFD2F8DC304B61A5
:105A60008B69013304BFD2F8F0308B61D1F818C0D4
:105A7000BCF1000F28D1C0F164040B688C61C2E94D
:105A800038374B683046C2E93B340B69C2F8E850FE
:105A9000C2F8D8304B691049C2F8DC30D1F8FC109C
:105AA00007230E4A02F05AFA0020F8BD04F16905F6
:105AB0002D1A9D4238BF1D46BFE704F174073F1AF7
:105AC0009F4238BF1F46BEE704F169031C1A6445B4
:105AD00038BF6446D1E700BF004F00B0A83F00B018
